:08000000803102288731F32F43
:10000A00F800F401F5017008F200F3017208F60035
:10001A007308F700781C1228132817287608F407A3
:10002A007708F53D0130F635F70D890B18280310CE
:10003A00F80C7808031D222823280F287508F100D8
:10004A007408F0000800F3007308073E8600870171
:10005A00700881007308083E8600870171088100D4
:10006A007308093E860087017208810073088600BA
:10007A0087017308073E840085010008303E81002D
:10008A00730A860087012E3081007308023E8600BB
:10009A0087017308083E840085010008303E81000C
:1000AA007308033E860087017308093E84008501B0
:1000BA000008303E81007308043E860087010D3037
:1000CA0081007308053E860087010A3081007308A3
:1000DA00063E86008701810108002100AD004430F8
:1000EA002000CD007F30CC00C030CB000030CA00E9
:1000FA004130B3002030B2000030B1000030B0000F
:10010A006E08F0006F08F100F201F30100308F3140
:10011A005627803173082000B7007208B6007108AC
:10012A00B5007008B4008531B82580312000330845
:10013A00D1003208D0003108CF003008CE00823119
:10014A000222803120004D082100AC0020004C081A
:10015A002100AB0020004B082100AA0020004A0819
:10016A002100A9002D08860087012C082000E7003D
:10017A0021002B082000E60021002A082000E500C3
:10018A00210029082000E4008D31672580312000F4
:10019A006408810021002D0A860087012C082000AE
:1001AA00AF0021002B082000AE0021002A08200001
:1001BA00AD00210029082000AC0021002D08840090
:1001CA0085010008A000A101A201A3012308F300F0
:1001DA002208F2002108F1002008F00001308F31D6
:1001EA005627803173082000AB007208AA007108F4
:1001FA00A9007008A8008C319424803120002B08B3
:10020A00B7002A08B6002908B5002808B40041300A
:10021A00B3002030B2000030B1000030B0008531A8
:10022A00B825803120003308E7003208E60031089B
:10023A00E5003008E4008D3167258031200064082C
:10024A00810021002D0886008701413FA8002C0863
:10025A002000AF0021002B082000AE0021002A0850
:10026A002000AD00210029082000AC0021002D0843
:10027A00860087010108A000A101A201A3012308A9
:10028A00F3002208F2002108F1002008F0000030F3
:10029A008F315627803173082000AB007208AA00FC
:1002AA007108A9007008A8008C31942480312000BC
:1002BA002B082100A70020002A082100A600200000
:1002CA0029082100A500200028082100A4002D08E3
:1002DA00023E8600870127082000AF002100260879
:1002EA002000AE00210025082000AD0021002408CE
:1002FA002000AC0021002808A000A101A201A3014E
:10030A002308F3002208F2002108F1002008F00077
:10031A0000308F315627803173082000D1007208CF
:10032A00D0007108CF007008CE004130CD002030D7
:10033A00CC000030CB000030CA008231022280316A
:10034A0020004D08AB004C08AA004B08A9004A0837
:10035A00A8008C319424803120002B08B7002A0889
:10036A00B6002908B5002808B4004230B300C830E6
:10037A00B2000030B1000030B0008531B8258031BC
:10038A0020003308E7003208E6003108E5003008AB
:10039A00E4008D3167258031200064088100210046
:1003AA002D08860087010A3001020318DD29DE299B
:1003BA00F1292D0A860087010A3001020318E6296D
:1003CA00E729F1292D08023E860087010A30010239
:1003DA00031CF029F129012A2D088600870109301A
:1003EA0081002D0A86008701093081002D08023E0E
:1003FA0086008701093081000800200051088039F1
:10040A00DB005135E200D01F0B2A0C2A0D2A621498
:10041A0062080319112A122A222A620A031D162ABD
:10042A00172A1F2A0030D1000030D0000030CF0038
:10043A000030CE00D017D1012A2A0030D100003076
:10044A00D0000030CF000030CE004D088039D200F5
:10045A005208DB064D35E300CC1F342A352A362AEA
:10046A006314630803193A2A3B2A4B2A630A031DB9
:10047A003F2A402A482A0030CD000030CC00003004
:10048A00CB000030CA00CC17CD01532A0030CD0072
:10049A000030CC000030CB000030CA004D084C04BC
:1004AA004B044A04031D5A2A5B2A742A0030D100DD
:1004BA000030D0000030CF000030CE008030D004B1
:1004CA007F30D1045B08D2005208D1045108CD0014
:1004DA005008CC004F08CB004E08CA00AB2B62086C
:1004EA00031D782A792A822A0030CD000030CC00F8
:1004FA000030CB000030CA00AB2B6208D200D30117
:10050A005308D50063085202D400031CD5035408CB
:10051A007F3EDC000030553DDD005108DA0050080E
:10052A00D9004F08D8004E08D7000030D10000305B
:10053A00D0000030CF000030CE000030E1000030A3
:10054A00E0000030DF000030DE00E301EA2A630841
:10055A000319B02AB12ACB2A0130D735D80DD90DC3
:10056A00DA0D890BB22A0130CE35CF0DD00DD10D5F
:10057A00890BB92AE11FC22AC32AC42A4E140130A0
:10058A00DE35DF0DE00DE10D890BC52A4D085A0253
:10059A00031DD92A4C085902031DD92A4B085802AF
:1005AA00031DD92A4A085702031CDC2ADD2AE62A37
:1005BA0061174A08D7024B08D83B4C08D93B4D086B
:1005CA00DA3B0130D2005208E3071A306302031CF7
:1005DA00EF2AF02AAC2A5A08590458045704031976
:1005EA00F72AF82A112B5E14112B0130CE35CF0DC4
:1005FA00D00DD10D890BFB2AE11F042B052B062BED
:10060A004E140130DE35DF0DE00DE10D890B072BAD
:10061A00FF30DC07FF30DD3DD01F142B152BFA2AE3
:10062A00E301E11F192B1A2B362BFF305E05D2008E
:10063A00FF305F05D300FF306005D4007F306105CD
:10064A00D500550854045304520403192D2B2E2B9C
:10065A00312BE301E30A362B4E1C342B352B362B78
:10066A002E2B630803193A2B3B2B632B0130CE0741
:10067A000030CF3D0030D03D0030D13D511C462BDB
:10068A00472B632B4E08D2004F08D3005008D400E2
:10069A005108D5000130D600D537D40CD30CD20C72
:1006AA00D60B512B5508D1005408D0005308CF005F
:1006BA005208CE000130DC070030DD3D5D08803A8B
:1006CA00D20080305202031D6C2BFF305C02031CE7
:1006DA006F2B702B7D2BFF302000DC000030DD00FB
:1006EA000030D1000030D0000030CF000030CE0002
:1006FA0020005D08803AD20080305202031D872B09
:10070A0001305C0203188A2B8B2B972B2000DC010B
:10071A00DD010030D1000030D0000030CF000030C1
:10072A00CE00DB0120005C08E200621C9D2B9E2BA0
:10073A00A02BD017A42B7F30D2005208D0056236E6
:10074A00D1005B08D2005208D1046B2A0800730852
:10075A008039F8007335FA00F21FB42BB52BB62B8B
:10076A007A147A080319BA2BBB2BCB2B7A0A031DEE
:10077A00BF2BC02BC82B0030F3000030F200003032
:10078A00F1000030F000F217F301D32B0030F30030
:10079A000030F2000030F1000030F00077088039B4
:1007AA00F900790878060319DB2BDC2BDD2B781787
:1007BA007735F900F61FE22BE32BE42B791479083D
:1007CA000319E82BE92BF92B790A031DED2BEE2BE4
:1007DA00F62B0030F7000030F6000030F50000304C
:1007EA00F400F617F701012C0030F7000030F6008C
:1007FA000030F5000030F4007A0879020318062C5C
:10080A00072C2E2C781F0A2C0B2C102C8030200041
:10081A00A0002008F8067A08FB007908FA007B088D
:10082A00F9007008FB007408F0007B08F4007108F6
:10083A00FB007508F1007B08F5007208FB007608DA
:10084A00F2007B08F6007308FB007708F3007B08C8
:10085A00F700FB0179082000A000A1012108A300EC
:10086A007A082002A200031CA3032308803AA400EA
:10087A0080302402031D432C1A302202031C462C0A
:10088A00472C792C7308720471047004031D4E2CD2
:10089A00502C0130512C0030FB000030F3000030A6
:1008AA00F2000030F1000030F0007908FA007F2CE5
:1008BA007B1C602C612C652C7B360138FB00672C75
:1008CA000310FB0C701C6A2C6B2C6C2CFB17013070
:1008DA002000A000F337F20CF10CF00CA00B6F2CE7
:1008EA000130A0002008FA0779087A02031C7E2C3E
:1008FA007F2C5D2C781B822C832CBA2C7A08031D42
:10090A00872C882C912C0030F3000030F200003044
:10091A00F1000030F000B72D7408F0077508F13DBA
:10092A007608F23D7708F33D731C9C2C9D2C472DCD
:10093A007B1CA02CA12CA52C7B360138FB00A72CF4
:10094A000310FB0C701CAA2CAB2CAC2CFB1701302F
:10095A002000A000F337F20CF10CF00CA00BAF2C26
:10096A000130A0002008FA07472D7308803A2000BA
:10097A00A0007708803A2002031DCD2C7608720267
:10098A00031DCD2C75087102031DCD2C740870024D
:10099A000318D02CD12C092DFF30A000FF30A10064
:1009AA00FF30A200FF30A30070087402A40071088F
:1009BA00753BA5007208763BA6007308773BA70033
:1009CA002408A0072508A13D2608A23D2708A33D23
:1009DA002308F3002208F2002108F1002008F000A1
:1009EA008030A0002008F806FB09FB0A7B08031DDB
:1009FA00FF2C002D112D0130F0070030F13D0030A1
:100A0A00F23D0030F33D112D7408F0027508F13BF8
:100A1A007608F23B7708F33B73087204710470049A
:100A2A00031D182D192D432D7B08031D1D2D1E2D69
:100A3A00432D0030F3000030F2000030F1000030A6
:100A4A00F000B72D0130F035F10DF20DF30D890BE1
:100A5A00282DFB1F312D322D332D70147B1C362D82
:100A6A00372D3A2D0314FB0D3C2D0310FB0D7A088C
:100A7A000319402D412D432D0130FA02F21F462D54
:100A8A00472D272DF901FB1F4B2D4C2D5A2D7B0885
:100A9A007F390319512D522D552DF901F90A5A2D75
:100AAA00701C582D592D5A2D522D790803195E2D77
:100ABA005F2D8D2D0130F0070030F13D0030F23D01
:100ACA000030F33D731C6A2D6B2D8D2D70082000AC
:100ADA00A0007108A1007208A2007308A3000130E7
:100AEA00A400A337A20CA10CA00CA40B762D2308FA
:100AFA00F3002208F2002108F1002008F0007A0A27
:100B0A000319882D892D8D2D0130A0002008FA07A0
:100B1A007A0A0319912D922D972D7A08031D962D85
:100B2A00972DA52D0030F3000030F2000030F100BF
:100B3A000030F0007A08031DA32DA42DA52DF8017D
:100B4A007A1CA82DA92DAB2DF217B02D7F302000CD
:100B5A00A0002008F2057A36F300F81FB52DB62D4D
:100B6A00B72DF3170800200033088039BD0033354C
:100B7A00C300B21FC12DC22DC32D4314430803194C
:100B8A00C72DC82DD72D430A031DCC2DCD2DD52D0C
:100B9A000030B3000030B2000030B1000030B000C5
:100BAA00B217DF2D0030B3000030B2000030B100C0
:100BBA000030B00037088039B8003808BD0637352C
:100BCA00C200B61FE92DEA2DEB2D42144208031983
:100BDA00EF2DF02DFF2D420A031DF42DF52DFD2DCD
:100BEA000030B7000030B6000030B5000030B40065
:100BFA00B617072E0030B7000030B6000030B50037
:100C0A000030B400420803190B2E0C2E112E430893
:100C1A00031D102E112E1A2E0030B3000030B20020
:100C2A000030B1000030B000F22F3008F000360872
:100C3A0080310520853171082000C9007008C8007C
:100C4A004808B800B901BA01BB013B08C1003A081B
:100C5A00C0003908BF003808BE004908B800B90109
:100C6A00BA01BB013B08C7003A08C6003908C500EB
:100C7A003808C4003108F000350880310520853174
:100C8A0071082000C9007008C8004808B800B901F6
:100C9A00BA01BB013808BE073908BF3D3A08C03D52
:100CAA003B08C13D4908B800B901BA01BB0138087F
:100CBA00C4073908C53D3A08C63D3B08C73D320856
:100CCA00F000340880310520853171082000C90000
:100CDA007008C8004808B800B901BA01BB01380851
:100CEA00BE073908BF3D3A08C03D3B08C13D490827
:100CFA00B800B901BA01BB013808C4073908C53DB3
:100D0A003A08C63D3B08C73D0830BE35BF0DC00D89
:100D1A00C10D890B8A2E3108F00034088031052074
:100D2A00853171082000C9007008C8004808BE074C
:100D3A004908BF3D0030C03DC13D3008F0003508CC
:100D4A0080310520853171082000C9007008C8006B
:100D5A004808BE074908BF3D0030C03DC13D0830C4
:100D6A00BE35BF0DC00DC10D890BB52E3008F00080
:100D7A00340880310520853171082000C9007008C7
:100D8A00C8004808BE074908BF3D0030C03DC13D04
:100D9A003108F000360880310520853171082000BD
:100DAA00C9007008C8004808C4074908C53D003092
:100DBA00C63DC73D3208F00035088031052085312F
:100DCA0071082000C9007008C8004808C40749080B
:100DDA00C53D0030C63DC73D3208F00036088031B7
:100DEA000520853171082000C9007008C80048082C
:100DFA00B8004908B900BA01BB010830B835B90DC5
:100E0A00BA0DBB0D890B032F3808C4073908C53D35
:100E1A003A08C63D3B08C73D3E08B8003F08B9003E
:100E2A004008BA004108BB001830BB36BA0CB90CEE
:100E3A00B80C890B1A2F3808C4073908C53D3A0877
:100E4A00C63D3B08C73D0830BE35BF0DC00DC10DBC
:100E5A00890B292F43084207B800B901B90D380890
:100E6A00823EC800FF30393DC900522F0130C435D7
:100E7A00C50DC60DC70D890B3C2FC11F452F462F27
:100E8A00472F44140130BE35BF0DC00DC10D890B6B
:100E9A00482FFF30C807FF30C93DC61F552F562FB0
:100EAA003B2FC201C11F5A2F5B2F772FFF303E0500
:100EBA00B800FF303F05B900FF304005BA007F3067
:100ECA004105BB003B083A043904380403196E2F64
:100EDA006F2F722FC201C20A772F441C752F762FEB
:100EEA00772F6F2F420803197B2F7C2FA42F0130F5
:100EFA00C4070030C53D0030C63D0030C73D471C21
:100F0A00872F882FA42F4408B8004508B90046083F
:100F1A00BA004708BB000130BC00BB37BA0CB90C99
:100F2A00B80CBC0B922F3B08C7003A08C600390818
:100F3A00C5003808C4000130C8070030C93D490857
:100F4A00803AB80080303802031DAD2FFF304802C6
:100F5A00031CB02FB12FBB2F7F302000C700803079
:100F6A00C6000030C5000030C400E62F2000490842
:100F7A00803AB80080303802031DC52F013048027C
:100F8A000318C82FC92FD42F00302000C700003003
:100F9A00C6000030C5000030C400BD01E62F2000A5
:100FAA004808C300FF30C405FF30C5057F30C605B9
:100FBA000030C705431CE22FE32FE42FC617433640
:100FCA00C7003D08B8003808C7044708B3004608F8
:100FDA00B2004508B1004408B00008002100C5016C
:100FEA00C601C701C801C901CA01CB01CC01CD01A3
:060FFA0020008E31552E8F
:1017560021009D1408008A302200970008001630E8
:1017660021009700080021001C08F1001B08F0006A
:10177600080071082100CF007008CE00080071082B
:101786002100D3007008D200080071082100D100A2
:101796007008D0000800031021009D1C03140030BF
:1017A600093D080072302100990098012200960137
:1017B6000800933021009E009B019C0101309D0092
:1017C60008003E3020009B009A0191104E309C008C
:1017D6000800F0007008063E8600870101080239FD
:1017E6000800F100FD30F0007108063E8600870112
:1017F600700881050800F0002000111E032C042C3F
:10180600FF2B700823009A00080000302000911872
:101816000130F00070080319112C122C132C9110B2
:1018260070080800F0007008063E86008701063042
:101836000102031C1F2C212C0130222C0030080031
:10184600F0012000111E282C292C302C23009E1E6E
:101856002D2C2E2C302CF001F00A700808002200E6
:101866008C018D01213021008C00C6308D00F830AE
:1018760023008D001F308C0024008D018C01210077
:10188600951722009D019E0108008C3132248C316F
:101896008B31D5238C318B31B2238C318B31AE23F6
:1018A6008C318B31DC238C318B31E4238C318C31C0
:1018B600D5248C310800F2007208063E86008701A6
:1018C60001087207F10071088600870101088B3153
:1018D600FE238C310130F1007208063E8600870136
:1018E600710881070800F3007308063E8600870129
:1018F6000114FD30F2007308063E86008701720867
:1019060081057308023E860087017008C03F710892
:10191600C13F7308860087017008C03F7108C13F48
:10192600080080302000AB062F08F3002E08F200D6
:101936002D08F1002C08F0002B08F7002A08F60005
:101946002908F5002808F4008331AC238C3173088C
:101956002000AB007208AA007108A9007008A80050
:101966000800F0007008860087018101700A860071
:10197600870181017008023E860087018101700897
:10198600033E860087010030C03FC13F22008D1113
:101996000D128D128C100C118C110C120C138C1351
:1019A6000D100800083023009F0090309D00243061
:1019B6009E00CF309B009C010030F0000030F1000B
:1019C6008B31C2238C310030F0000030F1008B31B6
:1019D600C8238C310030F0000030F1008B31BC237D
:1019E6008C312100CD010800F1007108063E860009
:1019F60087018101122D7108063E860087010108C4
:101A06007107F000700886008701303081000130D0
:101A1600F0007108063E860087017008810771088C
:101A2600063E8600870106300102031C1B2D1C2D75
:101A3600FE2C0800F4007408063E86008701011C8F
:101A4600252D262D482D7408860087010130810238
:101A560041310030813B7F317408860087011600D2
:101A66000104031D372D382D482D7408063E8600C7
:101A7600870181147408023E860087017408840079
:101A86008501403F803F413F813F7408063E860006
:101A96008701011D4F2D502D662D7408043E8600CA
:101AA6008701403FF000413FF1007008FF3EF20021
:101AB600FF30713DF3007408043E8600870172080A
:101AC600C03F7308C13F080003102000660D670D74
:101AD600ED006D08031D702D712D7A2D0030E70085
:101AE6000030E6000030E5000030E400D72D640841
:101AF600E8006508E9006608EA006708EB001F30A1
:101B0600EB36EA0CE90CE80C890B832D6808EC002F
:101B1600E617FF30E405FF30E505FF30E605003047
:101B2600E7059630ED02ED1F992D9A2DB22D6D0821
:101B3600803A973E0318A02DA12DA22D712D0130BC
:101B4600E736E60CE50CE40C890BA32D0130E80022
:101B56006808ED07031DB02DB12DA22DC72D20302D
:101B66006D02031CB72DB82DC22D712D0130E43541
:101B7600E50DE60DE70D890BBA2D0130ED026D0876
:101B8600031DC62DC72DB92D6C080319CB2DCC2DE1
:101B9600D72DE409E509E609E709E40A0319E50A88
:101BA6000319E60A0319E70A0800F6003C2E22008C
:101BB6008D150D128D127608860087010108F40036
:101BC600F5017408F2007508F3007308F100720855
:101BD600F0008E31D5268D317608033E86008701CA
:101BE6000130C03F0030C13F542E22008D110D162A
:101BF6008D12760A860087010108F400F501740843
:101C0600F2007508F3007308F1007208F0008E31D7
:101C1600D5268D317608033E860087010230C03F07
:101C26000030C13F542E22008D110D128D167608FC
:101C3600023E860087010108F400F5017408F200EF
:101C46007508F3007308F1007208F0008E31D5268E
:101C56008D317608033E860087010030C03FC13FC4
:101C6600542E7608033E860087010030C03FC13FF0
:101C7600542E7608033E86008701403FF400413F1C
:101C8600F5007508003A0319492E342E7408003AF7
:101C96000319DA2D013A0319F82D033A0319162E02
:101CA600342E08008C3148248E31C830F0000030C4
:101CB600F100AF308C3176248E31B6308C31F7247A
:101CC6008E31C0308C31B4248E312100AE018C317E
:101CD60008248E31003A0319712E722E7D2EAF30F4
:101CE6008D311D258E310030F200F300C0308D316C
:101CF600D8258E31AF308B31EC238E31003A031963
:101D0600852E862E902EAF308B31F4238E318B317B
:101D1600AB238E312100AE01AE0A8B31CE238E313C
:101D2600003A0319972E982EBD2E21002E0803196E
:101D36009D2E9E2EBD2EAE018B31B6238E3171089F
:101D46002100CA007008C9004A082000EF002100DF
:101D560049082000EE00C030803172208E3121000B
:101D66004008F0004108F1004208F200B630803128
:101D760028208E318C3123248E31003A0319C42E4B
:101D8600C52E6A2EB6308C3115248E31003A0319D1
:101D9600CD2ECE2E6A2EB6308C315E248E316A2E32
:101DA60080310228302F22008C140C158C150C164D
:101DB6000C178C170D10552F22008C100C158C1536
:101DC6000C120C138C130D10552F22008C140C15AD
:101DD6008C110C160C178C130D14552F22008C1415
:101DE6000C158C150C160C138C130D14552F220084
:101DF6008C100C158C150C120C138C170D14552FFA
:101E060022008C140C118C150C160C138C170D1447
:101E1600552F22008C140C118C150C160C178C17D0
:101E26000D14552F22008C140C158C150C120C1346
:101E36008C130D10552F22008C140C158C150C16B6
:101E46000C178C170D14552F22008C140C158C159D
:101E56000C160C138C170D14552F7108003A031924
:101E6600352F552F7008003A0319D62E013A03195B
:101E7600DF2E033A0319E82E013A0319F12E073A29
:101E86000319FA2E013A0319032F033A03190C2FEB
:101E9600013A0319152F0F3A03191E2F013A031998
:101EA600272F552F0800F800780803195B2F5C2FA1
:101EB600702FF31F5F2F602F702F7009FA007109C2
:101EC600FB007209FC007309FD00FA0A0319FB0AFC
:101ED6000319FC0A0319FD0A782F7308FD0072081E
:101EE600FC007108FB007008FA00730872047104A4
:101EF6007004031D7F2F802F892F0030F3000030E0
:101F0600F2000030F1000030F000FF2F9630F900AB
:101F1600972F0130F4007408F9070130FD36FC0CE8
:101F2600FB0CFA0C890B912FFE307D05031D9C2FAF
:101F36009D2F8C2FB12F0130F4007408F907013062
:101F4600FA070030FB3D0030FC3D0030FD3D01301E
:101F5600FD36FC0CFB0CFA0C890BAB2FFF307D0514
:101F6600031DB62FB72F9E2FC12F0130F902013066
:101F7600FA35FB0DFC0DFD0D890BBB2FFC1BC42F89
:101F8600C52FCB2F023079020318CA2FCB2FB82FBB
:101F96007918CE2FCF2FD72FFF30FA05FF30FB054C
:101FA6007F30FC05FF30FD050310F90C7908F400BD
:101FB600F501F601F7011830F435F50DF60DF70DBC
:101FC600890BDF2F7408FA047508FB047608FC04F5
:101FD6007708FD0478080319F12FF22FF72FF31F66
:101FE600F52FF62FF72FFD177D08F3007C08F2007A
:0A1FF6007B08F1007A08F0000800F3
:020000040001F9
:08000000FF3FFF3FFF3FFF3F00
:04000E00E43FFF3E8E
:00000001FF
